:020000040000FA
:10000000185C0120192900001D2900001F2900008B
:1000100021290000232900002529000000000000FC
:10002000000000000000000000000000610100006E
:100030002929000000000000A5010000351700007C
:100040002F29000031290000332900003529000044
:1000500037290000392900003B2900003D29000014
:100060003F290000412900004329000045290000E4
:1000700047290000492900004B2900004D290000B4
:100080004F29000051290000532900005529000084
:1000900057290000592900005B2900005D29000054
:1000A0005F29000061290000632900006529000024
:1000B00067290000692900006B2900006D290000F4
:1000C0006F290000712900007329000075290000C4
:1000D00077290000792900007B290000A131000068
:1000E000DB310000153200004F320000000000003C
:1000F0008529000087290000892900008B2900003C
:10010000F93200008F29000091290000F52D000030
:10011000552E0000B72E0000192F0000792F000087
:10012000DB2F00009F290000A1290000A329000067
:10013000A5290000A7290000A9290000AB2900007B
:10014000AD290000AF290000DFF810D003F008FB54
:100150000048004739020000AFF30080185C01201E
:10016000224B19680868B0E8F00F80F30988BFF3E4
:100170006F8F4FF0000080F311884EF00D0E704726
:100180000000000006480068006880F3088862B636
:1001900061B6BFF34F8FBFF36F8F00DF00BF00BFAB
:1001A00008ED00E0EFF30980BFF36F8F0F4B1A6883
:1001B00020E9F00F106008B54FF0800080F311883F
:1001C000BFF34F8FBFF36F8F00F068FE4FF000005A
:1001D00080F31188BDE8084019680868B0E8F00F9E
:1001E00080F30988BFF36F8F704700BF00000020C5
:1001F000EFF30580704700001FB501236422022140
:10020000002001F025FF002364220321184601F09D
:100210001FFF4FF4E130009000208DF808008DF8AA
:100220000A008DF80C00124C6946204601F019FDB9
:10023000204601F0ECFD1FBD10B502F023FBFFF7D7
:10024000DBFF0CA003F058FB02F038FC00F037FF96
:10025000002010BD70B50546054C204601F0F2FDAA
:100260000028FAD12946204601F0D6FD284670BD67
:100270000000024073797374656D2072756E0D0A0B
:100280000000000000F1080141604FF0FF32826081
:10029000C160016100210160704700210161704768
:1002A00042684A6093688B60936859609160086106
:1002B0000168491C0160704730B50C68621C02D0AF
:1002C00000F1080202E0026904E01A4653681D6862
:1002D000A542FAD953684B6099608A605160086101
:1002E0000168491C016030BD0169D0E901329A60A2
:1002F000D0E901235A604A68824201D182684A608B
:10030000002202610868401E0860704770B504460C
:100310000D4601F0FAF9D4E90F12206801FB020042
:1003200060600020A0632068A060E06B226C216800
:10033000401E00FB0210E0604FF0FF3084F84400E4
:1003400084F8450004F110004DB1FFF79BFF04F164
:100350002400FFF797FF01F0E4F9012070BD216947
:100360000029F8D000F00FFF0028F4D0FC494FF02E
:1003700080500860BFF34F8FBFF36F8FEBE70346EA
:100380000098002904D00260C36301640121BDE725
:100390000060F9E7F8B506460D461746002D10D067
:1003A00006FB05F0483001F02AFA04463CB104F19E
:1003B00048023B46294630460094FFF7E0FF2046BE
:1003C000F8BD0020EEE72DE9F041044601F09DF96B
:1003D00094F9455004F1240609E0606A48B13046BA
:1003E00000F0D1FE08B100F04CFF6D1E6DB2002D83
:1003F000F3DC4FF0FF3684F8456001F092F901F02C
:1004000084F994F9445004F1100709E0206948B1D7
:10041000384600F0B8FE08B100F033FF6D1E6DB233
:10042000002DF3DC84F84460BDE8F04101F079B9B7
:1004300010B5044601F069F9A06BE16B884201D167
:10044000012400E0002401F06CF9204610BD2DE9E4
:10045000F041044617460026A56B226C002A10D0F6
:10046000C7B1E06802F06AFFE168206C091AE16038
:100470002268914202D26168081AE060022F16D009
:1004800017E02068A8B9606800F042FF0646002027
:1004900060600EE0A06802F051FF216CA068084483
:1004A000A0606168884204D32068A06001E005B1C3
:1004B0006D1E6D1CA5633046BDE8F0812DE9FF4738
:1004C00082B004468A4699460025A8464FF08056D9
:1004D000A34F01F01AF9A06BE16B884206D3B9F182
:1004E000020F03D00498F8B115B325E04A465146EF
:1004F0002046FFF7ACFF616A51B104F1240000F01F
:1005000042FE58B13E60BFF34F8FBFF36F8F05E0DF
:1005100020B13E60BFF34F8FBFF36F8F01F001F941
:10052000012006B0BDE8F08701F0FBF80020F8E7F5
:10053000684600F07BFE012501F0F3F800F0F4FBC3
:1005400001F0E3F894F94400401C01D184F84480A0
:1005500094F94500401C01D184F8458001F0E1F890
:1005600004A9684600F068FE30B12046FFF72BFF73
:1005700000F04BFB0020D4E72046FFF759FF88B17D
:1005800004F11000049900F0E2FD2046FFF71BFF84
:1005900000F03BFB00289CD13E60BFF34F8FBFF3C0
:1005A0006F8F96E72046FFF70EFF00F02EFB90E7D7
:1005B000002807D0002141600160C16000231A4675
:1005C00019467BE7704710B5024600210120FFF76E
:1005D000E1FE04462046FFF7EBFF204610BD2DE963
:1005E000F041174604461A468020EFF3118680F347
:1005F0001188BFF34F8FBFF36F8FA06BE36B9842EF
:1006000005D3022A03D0002086F3118854E794F919
:1006100045502046FFF71BFF681C04D06D1C84F872
:1006200045500120F0E7606A0028FAD004F1240068
:1006300000F0A9FD0028F4D0002FF2D0012038608E
:10064000EFE770B50D468021EFF3118481F3118837
:10065000BFF34F8FBFF36F8F836BC16B994217D975
:1006600090F945205B1C8363511C04D0521C80F818
:10067000452001200DE0416A0029FAD0243000F025
:1006800082FD0028F5D0002DF3D001202860F0E78E
:10069000002084F3118870BD10B5044601F035F8D0
:1006A000A06B20B1002401F03CF8204610BD0124CD
:1006B000F9E730B40B46026C002A0CD0C168114433
:1006C000C1604468A14201D30168C160C16830BC07
:1006D000184602F033BE30BC70472DE9FF4F83B09F
:1006E00004468B469A460026B1464FF08057DFF805
:1006F000708001F00AF8A56BA5B3E668594620465C
:10070000FFF7D7FFBAF1000F13D0E660606A50B16F
:1007100004F1240000F037FD28B1C8F80070BFF3E1
:100720004F8FBFF36F8F00F0FCFF012007B0BDE8D3
:10073000F08F6D1EA563206810B900F027FE606081
:1007400020690028EFD004F1100000F01CFD002803
:10075000E9D0C8F80070BFF34F8FBFF36F8FE2E7A7
:1007600004ED00E0FFE7059808B126B107E000F0CE
:10077000D8FF0020DAE701A800F058FD012600F0BC
:10078000D0FF00F0D1FA00F0C0FF94F94400401C03
:1007900001D184F8449094F94500401C01D184F8BB
:1007A000459000F0BEFF05A901A800F045FD58B135
:1007B0002046FFF708FE00F028FA2046FFF76CFFFE
:1007C000002896D00020B1E72046FFF765FFE0B192
:1007D000206830B900F099FF606800F059FD00F022
:1007E000A0FF04F12400059900F0B1FC2046FFF7BA
:1007F000EAFD00F00AFA00287FF47BAFC8F8007029
:10080000BFF34F8FBFF36F8F73E72046FFF7DBFD1A
:1008100000F0FBF96DE72DE9F04104469046802099
:10082000EFF3118780F31188BFF34F8FBFF36F8F02
:10083000A66B002E1DD094F944502046FFF739FFD7
:10084000761EA663681C04D06D1C84F844500120F9
:1008500010E020690028FAD004F1100000F093FCA9
:100860000028F4D0B8F1000FF1D00120C8F8000042
:10087000EDE7002087F311881EE670B5044680205E
:10088000EFF3118580F31188BFF34F8FBFF36F8FA4
:10089000A06B002806D0E6682046FFF70AFFE66056
:1008A000012000E0002085F3118870BD10B50446DA
:1008B00000F02BFFA46B00F034FF204610BD10B5F4
:1008C000044600F022FFD4E90E10441A00F029FF7C
:1008D000204610BD806B704700F0DBBF806B0028A6
:1008E00001D00020704701207047816BC06B8142AE
:1008F00001D10120704700207047000070B500242E
:10090000FE4D04EB840005EB8000FFF7BBFC641C8C
:10091000052CF6D3F9486430FFF7B4FCF74878307B
:10092000FFF7B0FCF5488C30FFF7ACFCF348A03083
:10093000FFF7A8FCF148B430FFF7A4FCEF49F048FA
:10094000643141631431816370BD70B5044600F0B9
:10095000DCFEEB4DA868401CA860286810B16869EF
:1009600038B10CE02C60A868012808D1FFF7C6FF59
:1009700005E02868E16AC06A884200D82C60686A8D
:10098000401C6862E06A01212A69814011432961A3
:10099000DA4900EB800001EB8000211DFFF780FCAD
:1009A00000F0BFFE686900280CD02868E16AC06AC0
:1009B000884207D2D3494FF080500860BFF34F8F71
:1009C000BFF36F8F70BD2DE9F0478146DDE9085612
:1009D0000A9C9846521E206B00EB820020F007070D
:1009E000002023180A5C83F834200A5C12B1401CF2
:1009F0001028F6D34FF0000A84F843A0052D00D349
:100A00000425E5626564C4F848A0201DFFF745FC95
:100A100004F11800FFF741FC2461C5F10500A06155
:100A20006462C4F84CA084F850A042464946384657
:100A300000F044FE2060002E00D03460BDE8F08756
:100A40002DE9FF5F8146DDE90E788A4616469B4612
:100A5000B00000F0D4FE054628000AD0542000F073
:100A6000CEFE04460CB1256304E0284600F011FFD9
:100A700000E000248CB10020CDE90240CDE90078EF
:100A80005B46324651464846FFF79DFF2046FFF73A
:100A90005CFF012004B0BDE8F09F4FF0FF30F9E7A4
:100AA0009748416B0968002905D0416BC968C9683E
:100AB0004968816270474FF0FF318162704710B51D
:100AC0000446206B00F0E5FE2046BDE8104000F033
:100AD000E0BE70B5044600F018FE894D04B92C68DC
:100AE000201DFFF701FC58B9E06A844A00EB800141
:100AF00052F8211021B901218140286988432861D9
:100B0000A06A18B104F11800FFF7EEFB686A401CF8
:100B100068622868844208D17848211DA030FFF718
:100B2000BFFB6868401C686007E0A868401EA860BA
:100B30002046FFF7C4FFFFF7B3FF00F0F2FD68693E
:100B400000280AD02868844207D16E494FF08050AF
:100B50000860BFF34F8FBFF36F8F70BD2DE9F04179
:100B60000026674F386B002808D0B869401CB86170
:100B7000F86900B101263046BDE8F081FD686D1CC2
:100B8000FD6045B9786BB96B7963B863386A401C0E
:100B90003862FFF785FFB86ADFF8608185420DD3C0
:100BA000786B006838B1786BC068C468606885424B
:100BB0000ED2B86202E04FF0FF30B8623868C06A07
:100BC00000EB800058F820000128D1D90126CFE79A
:100BD000201DFFF789FBA06A18B104F11800FFF788
:100BE00083FBE06A01213A6981401143396100EBDE
:100BF000800008EB8000211DFFF752FBE06A396896
:100C0000C96A8842CCD30126CAE72DE9F041002405
:100C1000002700F07AFD3A4D286B401E2863286BB0
:100C2000F0BBA868E0B3DFF8D480012608F18C0897
:100C30001DE0D8F80C00C46804F11800FFF754FB5D
:100C4000201DFFF751FBE06A2A6906FA00F1114303
:100C500029612A4900EB800001EB8000211DFFF78C
:100C60001FFBE06A2968C96A884200D3EE61D8F8A0
:100C700000000028DDD10CB1FFF712FFAC6944B1D0
:100C8000FFF76CFF00B1EE61641E002CF8D100206C
:100C9000A861E86920B101271A493807086000E017
:100CA00003E0BFF34F8FBFF36F8F00F03AFD38467C
:100CB00062E72DE9F04104460F46114EF5683068B1
:100CC000001DFFF711FB38B9306890F82C10012097
:100CD0008840316981433161601C08D13FB131687E
:100CE000BDE8F0410548091DB430FFF7D9BA2C44DE
:100CF00030684460AC420DD2316805E00C09002038
:100D00000000002004ED00E0B06B091DBDE8F041DB
:100D1000FFF7D2BA3168706B091DFFF7CDFAB06AE0
:100D2000844200D2B46227E7FB48016B491C01638F
:100D3000704770B505460E460023FFF7F5FFF648ED
:100D4000C2682C68A119944205D98C4208D99142F5
:100D500006D9012304E08C4201D8914200D9012335
:100D600029601BB1881A0021FFF7A3FFFFF74DFF91
:100D7000002807D1E9494FF080500860BFF34F8F3A
:100D8000BFF36F8F70BD10B502460020002A07D058
:100D9000FFF7CAFF00211046FFF78BFFFFF735FF73
:100DA000002807D1DD494FF080500860BFF34F8F16
:100DB000BFF36F8F10BD10B5044600F0A6FC0CB950
:100DC000D5480468E46A00F0ACFC204610BD8022DF
:100DD000EFF3118182F31188BFF34F8FBFF36F8F51
:100DE000002801D1CC480068C06A81F3118870479F
:100DF0002DE9F04104460D460026052D00D30425BB
:100E000000F083FCC44F04B93C68606CA84241D038
:100E1000854208D939688C4209D03968C96AA94223
:100E200005D8012603E039688C4200D10126D4F8A8
:100E30002C80404500D1E5626564A069002802DB92
:100E4000C5F10500A061B64D08EB8801606905EBAE
:100E50008101884215D1201DFFF746FA012120B9F2
:100E60003A6901FA08F082433A61E06A3A698140DE
:100E70001143396100EB800005EB8000211DFFF775
:100E80000FFA3EB1A5494FF080500860BFF34F8F75
:100E9000BFF36F8FBDE8F04100F043BC9E4A106B7A
:100EA000002802D00120D06170470020D061106975
:100EB000B0FA80F0C0F11F00994900EB800001EB0F
:100EC000800041684968416000F10803994201D1FE
:100ED000496841604068C0681060704770B504465A
:100EE00000F013FC8C4D04B92C68201DFFF7FCF9B1
:100EF00058B9E06A8A4A00EB800152F8211021B902
:100F000001218140286988432861A06A18B104F151
:100F10001800FFF7E9F98248211DB430FFF7C0F946
:100F200000F0FFFB686928B100F0EFFBFFF7B8FDA8
:100F300000F0F7FB2868844209D1686940B177491D
:100F40004FF080500860BFF34F8FBFF36F8F70BDBD
:100F50007348A968B4300068884202D10020286034
:100F600070BDBDE8704099E700216D4B4269B43314
:100F70009A4206D1806AA3F12802904201D000B9BA
:100F800001210846704770B50446002C2BD0624DF5
:100F90002868844227D000F0B8FB2046FFF7E4FF22
:100FA000E8B1201DFFF7A0F9E06A01212A6981401C
:100FB000114329615A4900EB800001EB8000211D9B
:100FC000FFF76EF9E06A2968C96A884207D3534976
:100FD0004FF080500860BFF34F8FBFF36F8FBDE8B5
:100FE000704000F09EBB70BD2DE9F0410446002624
:100FF0008020EFF3118580F31188BFF34F8FBFF38B
:101000006F8F2046FFF7B0FF40B1434F386B48B1B8
:10101000434804F118018C30FFF742F985F3118839
:101020003046A9E5E06A3968C96A884200D30126DA
:10103000201DFFF759F9E06A01213A698140114307
:101040003961374900EB800001EB8000211DFFF77B
:1010500027F9E3E770B5324E2F4DA0361CE0FFF7BD
:1010600063FE306820B10024FFF7CFFDA4B901E092
:101070000124F9E700F049FBF068C468201DFFF780
:1010800033F9A868401EA8606868401E686000F0D8
:1010900048FB2046FFF713FD68680028DFD170BDCC
:1010A0001F4E4FF080541D4DFFF7D4FF30680128CC
:1010B000FAD92C60BFF34F8FBFF36F8FF4E71CB5E5
:1010C000154800242C30CDE900402346802215A18C
:1010D0001648FFF7B5FC012811D1802080F3118854
:1010E000BFF34F8FBFF36F8F0B484FF0FF3181621B
:1010F00001214161C460BDE81C4000F0F2BA1CBD92
:10110000802080F31188BFF34F8FBFF36F8F0249A8
:101110000020486100F0F8BA0000002004ED00E073
:101120000C09002049444C4500000000A1100000BB
:10113000FC48C0687047FB48C0687047F948806841
:101140007047002801D1F74800683430704710B567
:101150000C46F44909681831FFF7AEF82046BDE89F
:1011600010400121A5E570B5154641F00043ED4959
:101170000C68A36109681831FFF792F82846BDE8AA
:101180007040012195E52DE9F041C068C46804F183
:1011900018000746FFF7A8F8E24D2A6B01265AB15E
:1011A0003946E148FFF77CF8E06A2968C96A884255
:1011B00015D90120EE61DFE4201DFFF795F8E06A04
:1011C0002A6906FA00F111432961D74900EB800032
:1011D0008C3901EB8000211DFFF762F8E4E7002065
:1011E000CAE470B541F000410160C468FFF77CF8C3
:1011F000201DFFF779F8CB4DE06A01262A6906FA2F
:1012000000F111432961C84900EB80008C3901EBE2
:101210008000211DFFF744F8E06A2968C96A884206
:1012200002D90120EE6170BD002070BDBD490A6A7F
:101230000260C9684160704770B504460D4600F011
:1012400064FAB849C8682A68531C08D02368096A38
:101250008B4206D06168814203D801240DE000244E
:101260000BE06168401A904206D2101A28602046AE
:10127000FFF7DCFF002400E0012400F052FA2046D2
:1012800070BDA8490120C8617047A6480068704732
:1012900070B5044600283AD0A24DE06A2968C96AB0
:1012A000884234D2A069002804DB2868C06AC0F1F3
:1012B0000500A061E06A9C4E00EB80008C3E6169F5
:1012C00006EB800081421FD1201DFFF70DF80121A0
:1012D00050B9E06A00EB800256F8222022B92A6950
:1012E00001FA00F082432A612868C06AE0622A6934
:1012F00081401143296100EB800006EB8000211D35
:10130000BDE87040FEF7CCBF2868C06AE06270BDDF
:1013100070B504460020002C2DD0A16C491EA1649C
:10132000636CE26A9A4226D0002924D1201DFEF780
:10133000DBFF7D4A7B498C3A012350B9E06A00EB20
:10134000800552F8255025B90D6903FA00F0854350
:101350000D61606CE062C0F10500A061E06A0D699A
:1013600083402B430B6100EB800002EB8000211DCA
:10137000FEF796FF012070BD6A49086880690A6817
:101380000968D26AC2F105028A6170476549086836
:10139000002803D00868826C521C82640868704779
:1013A00070B506460C4600F0B0F95E4D2868C06C7A
:1013B00080B92A68012082F850005CB101212046E2
:1013C000FFF777FC59494FF080500860BFF34F8F0B
:1013D000BFF36F8F00F0A5F900F097F92868C46C8F
:1013E000002034B116B12968C86402E02A68611E81
:1013F000D164296881F8500000F093F9204670BD4F
:101400002DE9F04781460F461646984600F07DF9D3
:10141000444D286890F85000022817D02C68E06CE2
:1014200020EA0900E0642968012081F85000B8F141
:10143000000F0BD001214046FFF73BFC3B494FF02A
:1014400080500860BFF34F8FBFF36F8F00F069F9D2
:1014500000F05BF916B12868C06C3060286890F81D
:10146000500001280DD02868C16CB943C164012423
:101470002968002081F8500000F053F92046BDE8AB
:10148000F0870024F4E72DE9F04104460D4690462C
:101490001F46012600F039F90FB1E06C386094F86E
:1014A0005000022184F85010B8F1050F13D2DFE884
:1014B00008F01203070B0D00E16C2943E1640AE018
:1014C000E16C491CE16406E0E56404E0022801D017
:1014D000E56400E0002601281FD1201DFEF704FF6F
:1014E000104DE06A01212A698140114329610E49AA
:1014F00000EB80008C3901EB8000211DFEF7D0FE4F
:10150000E06A2968C96A884207D908494FF08050C3
:101510000860BFF34F8FBFF36F8F00F002F93046C2
:101520007FE50000000000209809002004ED00E0A5
:101530002DE9F0470446089F01268020EFF311852E
:1015400080F31188BFF34F8FBFF36F8F002B01D053
:10155000E06C186094F85000022384F85030052A9B
:1015600013D2DFE802F01203070B0D00E26C0A430E
:10157000E2640AE0E16C491CE16406E0E16404E035
:10158000022801D0E16400E0002601282CD1DFF818
:101590001481D8F830004FF0010970B104F118013E
:1015A0004148FEF77DFEE06AD8F80010C96A88421B
:1015B0001AD9BFB1C7F8009016E0201DFEF794FEBF
:1015C000E06AD8F8102009FA00F11143C8F81010A9
:1015D00000EB800134488C3800EB8100211DFEF7C0
:1015E0005FFEE0E7C8F81C9085F31188304646E7B7
:1015F0002DE9F041044688468020EFF3118780F3FF
:101600001188BFF34F8FBFF36F8F94F850100220F3
:1016100084F85000E06C401CE064012927D1214D82
:10162000286B012678B104F118011F48FEF738FE37
:10163000E06A2968C96A884219D9B8F1000F15D043
:10164000C8F8006013E0201DFEF74EFEE06A2A692C
:1016500006FA00F111432961134900EB80008C392F
:1016600001EB8000211DFEF71BFEE1E7EE6187F331
:101670001188D6E410B500280BD0044600F045F8D8
:1016800094F85000022807D0002400F04AF82046C1
:1016900010BD04480468F1E7002084F850000124DC
:1016A000F3E700000000002098090020802080F36C
:1016B0001188BFF34F8FBFF36F8FFEE720384FF0D5
:1016C0008073C36121F0010181612449416140F8C7
:1016D000202970474FF0E020214941610721016135
:1016E000704710B51F48016841F47F01016001682F
:1016F00041F07F410160FFF7EDFF1B4900200860CA
:10170000FEF740FD002010BD7047802080F3118857
:10171000BFF34F8FBFF36F8F13480168491C0160FF
:10172000704711490868401E0860002801D180F305
:101730001188704710B5802080F31188BFF34F8F58
:10174000BFF36F8FFFF70AFA20B106494FF08050C0
:101750001C390860002080F3118810BDAD16000010
:10176000FFAF010020ED00E03C00002030B55C49F7
:1017700000E011460A688242FBD34B685C18844241
:1017800003D140681844486008460D68446823182F
:10179000AB420DD1524B103B1B689A4206D05268A7
:1017A000224442600A681268026002E0036000E0BE
:1017B0000260814200D0086030BD4FF4A03149483A
:1017C000420706D0C01D20F007004649411AC1F566
:1017D000A031434A1060002353600144083921F0CE
:1017E0000701103A11604B600B600B1A43600160F7
:1017F0004068906050604FF00040D06070472DE925
:10180000F04105460026FFF78FFA354F103F386844
:1018100008B9FFF7D2FFF868054235D13DB1083568
:10182000680704D005F00700C0F1080005445DB367
:101830007868854228D82A490846046801E021468C
:1018400004466068A84202D220680028F7D13868B0
:10185000844219D00E680836206808606068411B11
:10186000102904D9601941606560FFF77FFF616846
:101870007868401A7860BA68904200D2B860F86818
:101880000143616000202060FFF7BFF93046BDE8EA
:10189000F08170B5002819D008380446104D6068F2
:1018A000103DE968084211D02268002A0ED1884311
:1018B0006060FFF739FA606869680844686020462C
:1018C000FFF754FFBDE87040FFF79FB970BD0448B3
:1018D0001038406870470248103880687047704779
:1018E00050000020D4090020426901238B409A4314
:1018F0004261704770B504460E4615463146204693
:10190000FFF7F2FFEA064FF0010000FA06F00CD5EF
:10191000A1680143A160E90703D021690143216166
:1019200018E021698143216114E0A1688143A1602D
:10193000A90703D5E1680143E1600BE0E168814359
:10194000E160E90703D021690143216102E02169D7
:1019500081432161206270BD426901238B401A439B
:1019600042617047C069C84000F00100704780695B
:10197000C84000F00100704701228A4002627047AF
:101980002DE9F0471646DDF820801F46DFF8AC92BF
:101990000124AB4D8C40A0EB09034FF4805C4FF069
:1019A0008042484576D01FDCA64BC01838D0604531
:1019B00058D0B0F5005F15D1906840F004009060F9
:1019C00001230022022000F043FB9F48012E6CD02F
:1019D0004168A1434160012F6BD0D5F81002A043AC
:1019E000C5F81002BDE8F08763457DD0B3F5405FD0
:1019F000F8D1906840F40010906001230022052087
:101A000000F026FB9148012E6FD04168A143416050
:101A1000012F6BD0D5F83002A043C5F83002E1E7C2
:101A2000906840F00100906000220123104600F011
:101A30000FFB84484042012E0AD04168A143416017
:101A4000012F09D0D5F80002A043C5F80002C9E76C
:101A5000416821434160F3E7D5F800022043C5F80F
:101A60000002BFE7906840F002009060012300226E
:101A7000184600F0EDFA7648012E0CD04168A143DB
:101A80004160B8F1010F0AD0D5F80003A043C5F8B2
:101A90000003A7E713E0416821434160F1E7D5F86F
:101AA00000032043C5F800039CE7416821434160DF
:101AB00091E7D5F810022043C5F8100292E790682C
:101AC00040F01000906001230022032000F0C0FAD3
:101AD000012E10D0D9F80400A043C9F80400012F4A
:101AE0000FD0D5F8200202E011E032E035E0A0434B
:101AF000C5F8200276E7D9F804002043C9F80400AD
:101B0000EDE7D5F820022043C5F820026AE7906887
:101B100040F02000906001230022042000F098FA99
:101B20004C48012E0BD04168A1434160B8F1010F30
:101B300009D0D5F82003A043C5F8200352E7416837
:101B400021434160F2E7D5F820032043C5F8200384
:101B500048E74168214341605AE7D5F83002204305
:101B6000C5F830023EE70122400100EB810000F1A0
:101B70008440026070470022400100EB810000F1C8
:101B8000844002607047400100EB810000F1844016
:101B90000168C1F10101016070470068C84000F0B0
:101BA00001007047C2F118036FF07F42DA4003680A
:101BB0008A40134303607047C2F118036FF07F42FD
:101BC000DA4003688A40934303607047C2F1180308
:101BD0006FF07F42DA4003688A40534003607047E9
:101BE000C2F118036FF07F42DA400068C84010402D
:101BF0007047C2F118036FF07F42DA4072B6036893
:101C00008A401343036062B67047C2F118036FF055
:101C10007F42DA4072B603688A409343036062B63B
:101C20007047C2F118036FF07F42DA4072B6036862
:101C30008A405340036062B6704700000050014084
:101C40000000014000F0FEBF003001400080014074
:101C50000020014000600140416821F400714160B2
:101C600070472DE9F04704460D46D5484FF480579C
:101C700026184FF080404FF400584FF4405973D06D
:101C8000BE4276D0464579D04E4503D1816841F4B5
:101C9000804181602046FFF7DFFF606840F400501C
:101CA0006060A0686FF30D00A060C64829680068F6
:101CB0000009B0FBF1F0A168401E0843A060606815
:101CC00020F47C00606060682979AA7940EA81404C
:101CD0006979C90441EA825108436060F6B3BE42A3
:101CE00055D0464557D04E4502D12A2000F05CF928
:101CF000E06880B2E060E879697A401C000440EA5C
:101D00000160E1680843E060606820F07F40606047
:101D10006068E97A40EA01606060606844F214013A
:101D2000884360606068297A2A7B40EA0110A97ABA
:101D3000890041EA82310843606086B3BE423FD0E9
:101D400046454DD04E4560D1287AA97A0843297B73
:101D5000084355D0BDE8F0472A2003E013E003E034
:101D600007E00BE000F015B9816841F40061816083
:101D700090E7816841F4805181608BE7816841F48C
:101D80000051816086E7272000F00EF9B0E7282097
:101D900000F00AF9ACE7292000F006F9A8E7FFE710
:101DA000287AA97A0843297B084304D0BDE8F04784
:101DB000272000F0EEB8BDE8F047272000F0F4B887
:101DC000287AA97A0843297B084304D0BDE8F04764
:101DD000282000F0DEB8BDE8F047282000F0E4B885
:101DE000287AA97A0843297B084304D0BDE8F04744
:101DF000292000F0CEB8BDE8F047292000F0D4B883
:101E0000BDE8F0472A2000F0CFB8BDE8F087416870
:101E100041F4007141607047016070470068C0F391
:101E200008020A60400501D5022070470020704773
:101E3000406840F30000401C7047406840F3C00019
:101E4000401C70474068C0F34000704782686FF3E1
:101E50000D0282605B4A12681209B2FBF1F18268DE
:101E6000491E114381607047564980680968090915
:101E7000C0F30D00401CB1FBF0F07047436923F044
:101E800005034361436941EA82010B4343617047A3
:101E90004069C0F3C010704710B5446924F07A045B
:101EA00044614469D20044EA410142EA0312114309
:101EB000416110BD4069C0F300207047036923F001
:101EC00005030361036941EA82010B430361704723
:101ED000016941F01001016170470069C0F34000E1
:101EE00070470069C0F3C00070470022FF2918D076
:101EF000A1F58073FF3B14D0FE290DD0B1F5FF7F13
:101F00000AD0F8290AD0B1F5FC7F07D0802907D084
:101F1000B1F5C07F04D0FEE7012202E0022200E01A
:101F20000322816821F06071816081684FF40003B1
:101F300043EA02621143816070478168090201D55A
:101F4000002070478068400101D5022070470120C1
:101F5000704742680A434260704742688A43426061
:101F60007047CA0602D5826852020ED44A0402D5CE
:101F70008268920209D44A0702D58268920304D487
:101F8000490604D58068000101D501207047002072
:101F9000704700F01F02012191404009800000F1CC
:101FA000E020C0F80011704700F01F0201219140AD
:101FB0004009800000F1E020C0F880117047000067
:101FC0000000FEBF6800002010B572B6000B1B4C6D
:101FD000A16888472068804762B610BD10B5030726
:101FE00001D0022010BD930701D0022010BD72B6AF
:101FF0009208124CE36898472068804762B6002038
:1020000010BD10B572B60D4940F289431E284A68CA
:1020100008D028280AD050280CD00949581C9047CD
:1020200062B610BD074918469047F9E706491846B9
:102030009047F5E7054918469047F1E7580000201A
:102040006E7AFCAB251FF4AB2929F4AB4D52F8ABEB
:102050002DE9F04F86B001EB81074FF01F0BA2F185
:10206000640A0BFA07F60AFA07F48D1F05EB850CD4
:102070000BFA0CF70AFA0CF54FF001084FEA410988
:102080004FF0030CA1F10C0E0CFA09FC08FA01F850
:102090000EEB8E0E8B40CDF800E00BFA0EFECDF865
:1020A00014E0DDF800E00AFA0EFECDF810E0A1F130
:1020B000120E0EEB8E0E0BFA0EFB0AFA0EFACDE99B
:1020C00002ABA1F1100A4FEA4A0A4FF0030B0BFAD8
:1020D0000AFBCDF804A0DFF89CA3062837D2DFE87E
:1020E00000F003396EA3F0EF632A18D906290AD24B
:1020F000DAF80001B043CAF80001DAF80001204321
:10210000CAF800010BE00C2909D2DAF80401B8433F
:10211000CAF80401DAF804012843CAF80401DAF81D
:10212000000020EA0C00CAF80000632A00D901224E
:10213000DAF8000002FA09F20243CAF80020CE4899
:10214000016821EA0801016001681943016006B0D5
:10215000BDE8F08F632A18D906290AD2DAF81001EF
:10216000B043CAF81001DAF810012043CAF8100190
:102170000BE00C2909D2DAF81401B843CAF81401AB
:10218000DAF814012843CAF81401DAF8040020EA46
:102190000C00CAF80400632A00D90122DAF804000E
:1021A00002FA09F20243CAF80420B3481030016869
:1021B00021EA08010160016819430160C7E7632A49
:1021C00018D906290AD2DAF82001B043CAF820014A
:1021D000DAF820012043CAF820010BE00C2909D2CB
:1021E000DAF82401B843CAF82401DAF824012843B4
:1021F000CAF82401DAF8080020EA0C00CAF808003E
:10220000632A00D90122DAF8080002FA09F202432F
:10221000CAF8082098482030016821EA08010160C6
:1022200001681943016092E7632A36D906290AD268
:10223000DAF86001B043CAF86001DAF860012043BF
:10224000CAF8600129E00C290AD2DAF86401B8431F
:10225000CAF86401DAF864012843CAF864011CE092
:1022600012290CD2DAF86801059CA043CAF868016B
:10227000DAF86801049C2043CAF868010DE01829C7
:102280000BD2DAF86C01039CA043CAF86C01DAF8AF
:102290006C01029C2043CAF86C01102912D2DAF8B2
:1022A000200020EA0C00CAF82000632A00D901228D
:1022B000DAF8200002FA09F20243CAF8202011E0FD
:1022C00071E019E0DAF8240020EA0B00CAF82400D3
:1022D000632A00D9012201988240DAF824000243DF
:1022E000CAF8242064484030016821EA08010160EE
:1022F0000168194301602AE7632A27D906290AD20F
:10230000DAF87001B043CAF87001DAF870012043BE
:10231000CAF870011AE00C290AD2DAF87401B8433D
:10232000CAF87401DAF874012843CAF874010DE0A0
:1023300012290BD2DAF87801059CA043CAF878017B
:10234000DAF8784104980443CAF87841102910D289
:10235000DAF8300020EA0C00CAF83000632A00D90D
:102360000122DAF8300002FA09F20243CAF83020FA
:102370000FE0DAF8340020EA0B00CAF83400632AD0
:1023800000D9012201988240DAF834000243CAF8E9
:10239000342039485030016821EA080101600168A1
:1023A00019430160D3E6632A36D906290AD2DAF83E
:1023B0008001B043CAF88001DAF880012043CAF8EE
:1023C000800129E00C290AD2DAF88401B843CAF85E
:1023D0008401DAF884012843CAF884011CE0122938
:1023E0000CD2DAF88801059CA043CAF88801DAF813
:1023F000884104980443CAF888410DE018290BD29B
:10240000DAF88C4103988443CAF88C41DAF88C01DD
:10241000029C2043CAF88C01102910D2DAF840003F
:1024200020EA0C00CAF84000632A00D90122DAF839
:10243000400002FA09F20243CAF840200FE0DAF83D
:10244000440020EA0B00CAF84400632A00D90122A4
:1024500001988240DAF844000243CAF84420064852
:102460006030016821EA08010160016819430160D8
:102470006DE600000000014000060140F0B58DB09F
:1024800004460E461746002534229649684600F059
:1024900055FF0123684603E050F823100D445B1CF0
:1024A000B342F9D3E819A1074FF064024FF4C8739F
:1024B0000CD1B4FBF2F102FB114121B9B4FBF3F1F1
:1024C00003FB114111B9032E00D3401CA4F26D711E
:1024D00040F26D1501FB050040F26D710DE08D07B6
:1024E0000AD1B1FBF2F502FB151525B9B1FBF3F5E5
:1024F00003FB151505B9401C491CA142EFD3401C34
:102500000721B0FBF1F201FB12000DB0F0BD00217C
:102510004162704770B505460C464FF080408168B7
:1025200041F08071816070490A6A22F001020A62FA
:1025300081686E4A114381602846FFF7E8FFA86A68
:102540000028FCD0A079617940EA811028602079C8
:10255000E17840EA41106860E278A1782088FFF7CE
:102560008DFFA17840EAC100A8602088E8600120C2
:10257000A8611F202862E079217A40EA4100E861E1
:10258000E079217A084304D0BDE87040302000F0A3
:102590009EB857494FF48030086070BD01214162F8
:1025A0007047C2680A808268C2F3C3028A704268B8
:1025B000C2F34412CA70826802F0070301229A40F3
:1025C0000A71426802F01F024A710268C2F3851262
:1025D0008A71006800F03F00C8717047826A002A63
:1025E000FCD0CA788B7842EA831202614A780B7871
:1025F00042EA431242610222826182699207FCD45C
:1026000010220262C26922F01002C261C2690B7913
:1026100042EA0312C2610879002802D0302000F09B
:1026200056B87047C16941F00101C1617047C16985
:1026300021F00101C1617047012101627047006A08
:10264000C0F300007047C16941F00201C1617047E9
:10265000C16921F00201C161704702210162704726
:10266000006AC0F340007047C16941F00401C161D4
:102670007047C16921F00401C16170470421016202
:102680007047006AC0F380007047C16941F00801DB
:10269000C1617047C16921F00801C161704708211B
:1026A00001627047006AC0F3C0007047C16941F021
:1026B0001001C1617047C16921F01001C16170470B
:1026C000102101627047006AC0F30010704700F0EB
:1026D0001F02012191404009800000F1E020C0F874
:1026E000001170470C42000000E00140000400802F
:1026F00084E100E030B54FF0804108687B4A45072F
:102700007B4C7C4B7C480CD50D68AD0701D5026035
:102710001CE02268D20702D0784A026016E003600B
:1027200014E00D68ED070ED0646AA40701D50360BC
:1027300000E0026002680523B2FBF3F2C8235A43AB
:10274000D208026002E04FF4FA4202604968C90709
:1027500002D0016849080160694A0168B1FBF2F1E1
:10276000416030BD4FF080400168490702D40068E5
:10277000C00707D0002044F6206100BF401C8842FB
:10278000FBD37047002000BF401C1428FBD37047C8
:1027900010B5574C01202062FFF7E4FFFFF7E2FF7E
:1027A000606A20F002006062A06A56490840A06298
:1027B000A06A55490843A062606A20F00400606284
:1027C000206B0028FCD010BD10B5FFF7E1FF484892
:1027D000416A41F0010141628004016841F0010158
:1027E0000160016821F00401016010BD10B540498D
:1027F00001200862FFF7B6FFFFF7B4FF4FF08040FB
:10280000016841F002010160016841F004010160CA
:1028100010BD10B54FF08044A06840F08070A060FB
:102820003A48016A21F001010162FFF79BFF20682D
:1028300020F001002060206820F00400206010BD1E
:1028400010B52B4901200860FFF78CFF4FF0804046
:10285000016821F002010160016841F0040101609A
:1028600010BD10B5224900200860FFF77BFF4FF034
:102870008040016821F002010160016841F004011B
:10288000016010BD10B54FF08044A06840F4800096
:10289000A0607820FFF7B5FBFFF796FF606820F097
:1028A0000100606060686060FFF724FF124818490B
:1028B0000068884204D9BDE810407820FFF7A1BB2A
:1028C0000E49884204D9BDE810405020FFF799BB5B
:1028D0001049884204D9BDE810402820FFF791BB79
:1028E000BDE810401E20FFF78CBB000000805101A6
:1028F00000100340002D310168000020005A6202E0
:1029000040420F0000FEE0FC3200050000E0014004
:1029100000B4C40480C3C90125480047FEE7FEE7B0
:10292000FEE7FEE7FEE7FEE7FEE7FEE7FEE7FEE77F
:10293000FEE7FEE7FEE7FEE7FEE7FEE7FEE7FEE76F
:10294000FEE7FEE7FEE7FEE7FEE7FEE7FEE7FEE75F
:10295000FEE7FEE7FEE7FEE7FEE7FEE7FEE7FEE74F
:10296000FEE7FEE7FEE7FEE7FEE7FEE7FEE7FEE73F
:10297000FEE7FEE7FEE7FEE7FEE7FEE7FEE7FEE72F
:10298000FEE7FEE7FEE7FEE7FEE7FEE7FEE7FEE71F
:10299000FEE7FEE7FEE7FEE7FEE7FEE7FEE7FEE70F
:1029A000FEE7FEE7FEE7FEE7FEE7FEE7FEE7FEE7FF
:1029B000490100004B480168002905D000231A4650
:1029C00019468068FDF77ABD7047464801680029BE
:1029D00005D000235A1E19468068FDF77EBE704759
:1029E0000FB400B5C1B03F48006800280ED043AB1B
:1029F0004FF4807101A8429A00F08EFFFFF7E5FFC7
:102A000001A939A000F078FFFFF7D4FF41B05DF8CD
:102A100014FB10B5334C2068012806D00120FDF7C7
:102A2000D2FDA06010B10120206010BD2F4930A060
:102A300000F062FFFEE786B02C492EA0263900F098
:102A40005BFFFFF7E6FF00F076F800F098F800F083
:102A5000BAF840F2E970ADF8100005208DF81200C8
:102A600009208DF8130002208DF8150014208DF830
:102A7000160000208DF81700204D2868016804A872
:102A800088472868406880472868C06880470446AF
:102A900028680169204688474FF47A75A179E07962
:102AA0006279CDE900210290E378A278218814A010
:102AB000FFF796FF2846FEF766F9EFE71CB50B49CE
:102AC0000CA0153900F018FF06480221001DCDE9C1
:102AD000001000234A0213A1AFF2A500FDF7B0FFDA
:102AE0001CBD00007000002025730000664200003D
:102AF0006572723A25730D0A000000009C000020E8
:102B0000253034642D253032642D25303264202563
:102B10003032643A253032643A25303264200D0A6E
:102B20000000000073746172740000000B490CA077
:102B3000FFF756FFFEE71CB5084909A01031FFF763
:102B40004FFF09480221CDE9001000234A0207A1E6
:102B5000AFF22700FDF774FF1CBD000072420000B9
:102B600025730D0A000000007C000020686F73745C
:102B7000000000000B490CA0FFF732FFFEE71CB578
:102B8000084909A01231FFF72BFF09480221CDE9BE
:102B9000001000234A0207A1AFF22700FDF750FF03
:102BA0001CBD00009642000025730D0A00000000C5
:102BB000800000206C697374656E00000B490CA0E6
:102BC000FFF70EFFFEE71CB5084909A01031FFF71B
:102BD00007FF09480221CDE9001000234A0207A19E
:102BE000AFF22700FDF72CFF1CBD0000BE42000025
:102BF00025730D0A00000000840000206374726CCD
:102C0000000000000949096809680847074800688A
:102C1000406800470548006880680047034800682E
:102C2000C06800470149096809690847FC08002095
:102C3000412803D2FE4901EB401070470020704745
:102C4000F8B50F46002400250026FFF7F1FF002805
:102C500015D0052F0CD2DFE807F0030B050709009C
:102C6000012405E0012503E0012601E001240125FE
:102C70000096C16880682B462246FEF781FEF8BDAB
:102C800010B50C46FFF7D4FF00280CD02CB1C1685A
:102C90008068BDE81040FEF766BFC1688068BDE887
:102CA0001040FEF768BF10BD10B5FFF7C1FF28B197
:102CB000C1688068BDE81040FEF76FBF012010BDFD
:102CC00070B50E4614461D46FFF7B2FF20B1846171
:102CD000C5614661002070BD4FF0FF3070BD10B57A
:102CE000FFF7A6FF28B100218161C1614161002089
:102CF00010BD4FF0FF3010BDF8B50E46FFF798FF3E
:102D00000446200006D00125012E06D0002E60D0FA
:102D1000281FF8BD4FF0FF30F8BD6169002005297C
:102D200054D2DFE801F003101D2A37000095D4E9E2
:102D3000020100231A46FEF723FED4E90201012214
:102D4000FEF7D8FD32E00090D4E902010123002211
:102D5000FEF716FED4E902010022FEF7CBFD25E0C6
:102D60000095D4E9020101230022FEF709FED4E90F
:102D700002010222FEF7BEFD18E00095D4E902012F
:102D800000231A46FEF7FCFDD4E902011122FEF7EA
:102D9000B1FD0BE00090D4E9020101230022FEF70F
:102DA000EFFDD4E902011022FEF7A4FD94F9100012
:102DB00000F01F018D404009800000F1E020C0F8C4
:102DC0000051D4E90201FEF7C7FD11E06FF00100E8
:102DD000F8BD94F9100000F01F018D4040098000FB
:102DE00000F1E020C0F88051D4E90201FEF77CFD3B
:102DF0000020F8BD70B500218D488E4E183802684D
:102E0000002A0FD10122026018308B4A07E0836844
:102E1000934203D1036846F82130491C20300368EF
:102E2000412BF4D3002556F82500FFF701FF044697
:102E3000E168A068FEF796FD40B1E168A068FEF782
:102E40009BFDA06910B1E069A16988476D1C182D30
:102E5000E9DB70BD70B500217548764E18386036D4
:102E60004268002A0FD1012242601830734A07E0FD
:102E70008368934203D1036846F82130491C20300F
:102E80000368412BF4D3002556F82500FFF7D0FE48
:102E90000446E168A068FEF765FD40B1E168A068FE
:102EA000FEF76AFDA06910B1E069A16988476D1C51
:102EB000182DE9DB70BD70B500215D485D4E1838F6
:102EC000C0368268002A0FD10122826018305C4A25
:102ED00007E08368934203D1036846F82130491C18
:102EE00020300368412BF4D3002556F82500FFF766
:102EF0009FFE0446E168A068FEF734FD40B1E1683A
:102F0000A068FEF739FDA06910B1E069A1698847A2
:102F10006D1C182DE9DB70BD70B500214448494E89
:102F20001838C268002A0FD10122C2601830464A00
:102F300007E08368934203D1036846F82130491CB7
:102F400020300368412BF4D3002556F82500FFF705
:102F50006FFE0446E168A068FEF704FD40B1E16839
:102F6000A068FEF709FDA06910B1E069A169884772
:102F70006D1C182DE9DB70BD70B500212C48314E59
:102F8000183860360269002A0FD101220261183018
:102F90002E4A07E08368934203D1036846F8213044
:102FA000491C20300368412BF4D3002556F8250036
:102FB000FFF73EFE0446E168A068FEF7D3FC40B18F
:102FC000E168A068FEF7D8FCA06910B1E069A169CA
:102FD00088476D1C182DE9DB70BD70B500211448C1
:102FE000184E1838C0364269002A0FD101224261BA
:102FF0001830174A07E08368934203D1036846F804
:103000002130491C20300368412BF4D3002556F8A9
:103010002500FFF70DFE0446E168A068FEF7A2FC5C
:10302000D8B1E168A068FEF7A7FCA069A8B111E0DB
:10303000B8000020D44901200010014000200140C8
:1030400000300140F44A012000500140006001407E
:1030500000800140E069A16988476D1C182DD6DB0E
:1030600070BD00000246002000230B60002A08D03B
:10307000012A08D0022A08D0032A08D001220A60B7
:103080007047814870478148704781487047814840
:1030900070472DE9F04186B004460F4600250195A2
:1030A00001A92046FFF7DEFF80460198012601288E
:1030B00001D03CBB05E03146774A78A000F01CFC0B
:1030C000FEE70123642202210020FEF7C1FF002356
:1030D000642203211846FEF7BBFF02978DF80C50BF
:1030E0008DF80D508DF80E5007208DF80F008DF8DB
:1030F00010608DF811508DF81250FF208DF81300DC
:103100008DF8146002A94046FEF7ABFD06B0BDE89D
:10311000F08108B5002100916946FFF7A3FF0099EF
:10312000012901D0FEF773FE08BD08B5002100910A
:103130006946FFF797FF0099012901D0FEF78CFD42
:1031400008BD38B50D46002200926946FFF78AFF98
:1031500004460098012808D02046FEF773FE002898
:10316000FAD129462046FEF757FE38BD704704289D
:1031700002DA4E4A42F82010704704280CDA273051
:1031800040B200F01F0301229A404009800000F184
:10319000E02011B1C0F800217047C0F880217047CD
:1031A000F8B5394E002544F210013046FEF7D9FE3D
:1031B000002811D03D4C0AE069463046FEF72EFE4D
:1031C00028B9009854F82520C1B2284690473046C7
:1031D000FEF733FE0028EFD0F8BDF8B52B4E0125E1
:1031E00044F210013046FEF7BCFE012811D12F4CED
:1031F0000AE069463046FEF711FE28B9009854F8F7
:103200002520C1B2284690473046FEF716FE00281A
:10321000EFD0F8BDF8B51E4E022544F2100130463D
:10322000FEF79FFE012811D1204C0AE06946304686
:10323000FEF7F4FD28B9009854F82520C1B22846BD
:1032400090473046FEF7F9FD0028EFD0F8BDF8B5FD
:10325000104E032544F210013046FEF782FE01288D
:1032600011D1124C0AE069463046FEF7D7FD28B965
:10327000009854F82520C1B2284690473046FEF702
:10328000DCFD0028EFD0F8BD000002400010024035
:103290000020024000300240E24200006572725B92
:1032A00025645D3A25730D0A00000000D80800204F
:1032B0000EB50188ADF8001081788DF80210C17844
:1032C0008DF8031041798DF8041081798DF805107F
:1032D000C0798DF8060001208DF8070000208DF8D8
:1032E000080069461348FFF715F90EBD1148FFF7AE
:1032F00055B91048FFF70BB910B50E4C2046FFF733
:103300009EF930B12046FFF797F90B492046FFF7A9
:1033100048F92046FFF7A4F9002804D02046BDE86C
:103320001040FFF79AB910BD0348704701460148A5
:10333000FFF737B900B001400009002040EA01035F
:103340009B0703D009E008C9121F08C0042AFAD25B
:1033500003E011F8013B00F8013B521EF9D270471F
:1033600030B50B46014600202022012409E021FA55
:1033700002F59D4205D303FA02F5491B04FA02F552
:103380002844151EA2F10102F1DC30BD2DE9F05FE9
:103390000546002092469B468846064681464024C4
:1033A0001BE0284641464746224600F0FAF95346BC
:1033B0005A46C01A914110D311461846224600F0D1
:1033C000E1F92D1A67EB01084F4622460120002142
:1033D00000F0D8F917EB00094E41201EA4F10104BA
:1033E000DFDC484631462A464346BDE8F09F2DE9DA
:1033F000FE4F804681EA0300C00F0C46009021F08A
:10340000004123F00045B8EB0200A94105D2404637
:10341000214690461C460B46024623F000401043CE
:1034200047D0270DC7F30A00C3F30A510290401A90
:10343000019040286BDAC3F3130040F4801B00981E
:10344000924620B10023D2EB030A63EB0B0B0198E9
:103450005946C0F14002504600F094F906460D4628
:1034600050465946019A00F0ACF910EB0800614152
:10347000002487EA115284EAE7731A4340D0009A85
:1034800062B3019A012A4FEA075215DC001B61EB77
:1034900002014FF0004202EA0752CDE90042001C4F
:1034A00041F5801132462B4600F0ACF903B0BDE87F
:1034B000F08F40462146F9E7001B61EB0201001C3A
:1034C00041F5801300185B412018A2F5001747EB67
:1034D000030140EAD570B6196D4111E06D084FEA5D
:1034E000360645EAC0754FEA0752001B61EB020140
:1034F000001C41F5801149084FEA30000019514184
:1035000032462B4603B0BDE8F04F00F06CB900988E
:10351000012240000023D0EB020263EBE07300982D
:1035200021464FEAE074B8EB000061EB0401E9E7E3
:1035300083F000435BE781F0004158E72DE9FE4F3F
:1035400081EA030404F0004421F0004100944FF0AC
:10355000000B23F0004350EA01045ED052EA03045A
:103560005BD0C3F30A54C1F30A552C44A4F2F334DC
:103570000194A0FB0254C1F3130141F48011C3F381
:10358000130343F4801301FB024400FB034E840A3F
:10359000970A44EA815447EA8357A4FB07680295D7
:1035A0008D0A05FB07854FEA932C04FB0C54270575
:1035B000029D4FEA065847EA1637B5EB08056EEB51
:1035C000070C870E920E47EA811742EA8312A7FB87
:1035D0000201B6EB0B0164EB00042B0D43EA0C3344
:1035E0005E1844EB1C50DA465146E7FB0201C5F376
:1035F00013044FEA0B3343EA14534FEA0432019C9D
:1036000043EA0603A4F10C040294009CCDE900B443
:1036100000F0F8F803B0BDE8F08F00200146F9E7AC
:103620002DE9F04D81EA030404F0004B21F0004540
:1036300014464FF0000A23F0004150EA050220D062
:1036400054EA01021DD0C5F30A570246C5F313031D
:10365000C1F31300C1F30A5640F4801543F48013FC
:10366000A7EB0608101BD64608F2FD3873EB0500E1
:1036700002D308F1010801E092185B41B8F1000F94
:1036800003DA00200146BDE8F08D00204FF48011E0
:10369000064684460EE0171B73EB050705D3121B85
:1036A00063EB050306434CEA010C49084FEA30007E
:1036B00092185B4150EA0107EDD152EA030012D0A3
:1036C00082EA040083EA0501084305D0101BAB41E0
:1036D00006D20122002306E000224FF0004302E060
:1036E0006FF0010253101AEB06004CEB085110EB7F
:1036F0000A0041EB0B01BDE8F04D00F074B8C1F3D6
:103700000A52C1F3130140F2FF3341F480119A428F
:1037100002DA00200146704740F233439A42A2F297
:10372000334202DC524200F03CB800F02BB80000FB
:1037300030B5041E71F1000404DB4FF00044404238
:1037400064EB0101141E73F1000405DB1C464FF00D
:103750000043524263EB0403994208BF904230BDDC
:10376000064C074D06E0E06840F0010394E80700CE
:1037700098471034AC42F6D3FCF7EAFCE84300006B
:1037800008440000202A04DB203A00FA02F100205D
:1037900070479140C2F1200320FA03F3194390408F
:1037A0007047202A04DB203A21FA02F000217047FA
:1037B00021FA02F3D040C2F1200291400843194699
:1037C0007047202A06DBCB17203A41FA02F043EA81
:1037D000E07306E041FA02F3D040C2F120029140CA
:1037E00008431946704710B5141E73F1000408DA37
:1037F000401C41F1000192185B411A4301D120F0B5
:10380000010010BD2DE9F04D92469B4611B1B1FA71
:1038100081F202E0B0FA80F220329046FFF7B2FF68
:1038200004460F4640EA0A0041EA0B0153465A4655
:10383000084313D0114653EA010019D0C8F14002E1
:103840005046FFF7AEFF05460E46504659464246E3
:10385000FFF798FF084305D0012004E020463946D1
:10386000BDE8F08D0020054346EAE0762C4337435F
:103870000A986305E40AA0EB08000022FD0A44EA66
:1038800047540A3002D500200146E9E70105101926
:103890006941DDE9084500196941BDE8F04DA2E73D
:1038A00070B58C1810F8015B15F0070301D110F802
:1038B000013B2A1106D110F8012B03E010F8016B2F
:1038C00001F8016B5B1EF9D12B0705D40023521EB2
:1038D0000DD401F8013BFAE710F8013BCB1A921C1A
:1038E00003E013F8015B01F8015B521EF9D5A14218
:1038F000D8D3002070BD00000FB4054B10B503A94C
:10390000044A029800F0F4F810BC5DF814FB0000C3
:1039100055020000080900207CB50C001D46164623
:10392000014601D0601E00E00020CDE90010064BEA
:103930006A462946304600F0DBF8002C02D0009A97
:10394000002111707CBD0000F741000002E008C8B2
:10395000121F08C1002AFAD170477047002001E009
:1039600001C1121F002AFBD1704700002DE9FF5F43
:1039700082B00021DDE90430020DDDF840B00343E0
:1039800018D044F61050A2F2FF3242431514119899
:1039900001281FD0A5EB0B00401C5FEA000A4FF086
:1039A00000064E4FDFF83891B046504615D5CAF1A3
:1039B000000413E0119801244AA3012801D16FEA01
:1039C0000B010298119AC0E90031C0E9024206B029
:1039D000BDE8F09FCBF10000DFE704460021404A3C
:1039E000491842EB0450CDE9001012E0E00707D07F
:1039F00032463B4640464946FFF7A0FD8046894691
:103A000032463B4610461946FFF798FD06460F46DC
:103A10006410002CEAD1DDE90401DDE90023BAF1EC
:103A2000000F06DAFFF78AFD42464B46FFF786FD98
:103A300005E0FFF7F5FD42464B46FFF7F1FD044672
:103A40000E460022284BFFF773FE03D84FF0FF30DD
:103A5000014607E00022254B20463146FFF7C7FC10
:103A6000FFF74DFE102409E0002C0ADB0A22002398
:103A7000FFF78CFC039B30321A55641E50EA01029A
:103A8000F2D1641C039AC4F111031444119A012A5F
:103A900003D0012208430DD10AE0084304D00020DE
:103AA0004FF0110B119072E7A3EB0B056D1E0DE0AB
:103AB0005B4504DD4FF0000205F1010504E003DA87
:103AC0004FF00002A5F10105002AECD002981199EF
:103AD000C0E90231C0E9004579E700000000144068
:103AE0000000F03F300000000000F0430000E03F25
:103AF0002DE9FF4F95B09A46884606460025EEE12F
:103B0000252877D100242746F94A0121039400E0B3
:103B1000044316F8013F203B01FA03F01042F7D1AD
:103B200030782A2811D06FF02F033078A0F13002BE
:103B3000092A16D8039A44F0020402EB820203EB2E
:103B400042021044761C0390EFE758F8042B0392CE
:103B5000002A03DA504244F40054039044F0020473
:103B6000761C30782E2816D116F8010F44F0040484
:103B70002A280DD06FF02F023078A0F13003092BE6
:103B800009D807EB870302EB4303C718761CF3E75A
:103B900058F8047B761C30786C280FD006DC4C2853
:103BA00017D068280DD06A2814D104E0742810D0EA
:103BB0007A280FD10DE044F400140AE044F4801494
:103BC00001E044F440147278824202D104F580147A
:103BD000761C761C307866280BD013DC582877D0FA
:103BE00009DC002875D04528F6D04628F4D04728AF
:103BF0001AD193E118E0632835D0642879D065287C
:103C000012D18BE1702873D008DC6728F1D06928C5
:103C10006FD06E280DD06F2806D1ACE073282CD061
:103C2000752874D0782853D05246179990476D1C48
:103C300054E1C4F30250022809D003280DD0D8F86B
:103C4000001004280DD00D6008F1040846E1D8F8F2
:103C50000010EA17C1E90052F6E7D8F800100D800D
:103C6000F2E70D70F0E718F8041B8DF80010002043
:103C70008DF80100EB46012003E058F804BB4FF03B
:103C8000FF3061074FF0000102D40DE009F101019E
:103C90008946B9420FDA8145F8DB1BF80910002983
:103CA000F4D108E009F1010189468142FADB1BF8F1
:103CB00009100029F6D103985346A0EB09072146C5
:103CC0003846179A00F080FA284400EB090507E00F
:103CD00044E008E10DE01BF8010B524617999047AC
:103CE000B9F10109F7D2534621463846179AF2E056
:103CF00039E00A21C4F302524FF0000B0091022A6E
:103D000006D058F8040BC117032A09D00AE023E0B3
:103D100008F1070020F00702F2E80201904605E0F2
:103D200000B2C117042A01D140B2C117002906DA36
:103D30000A460021404261EB02012D2202E02205E9
:103D400004D52B228DF80420012203E0E20701D0E4
:103D50002022F7E7914657E00A2100E010214FF0BA
:103D6000000B00910BE010214FF0000B44F0040415
:103D70000827009103E008204FF0000B0090C4F3E7
:103D80000252022A05D058F8040B0021032A08D059
:103D900008E008F1070020F00702F2E8020190466F
:103DA00003E080B2042A00D1C0B24FF0000922071C
:103DB0002AD53278702A07D0DDF800C08CF0100CBC
:103DC0005CEA0B0C05D00EE040228DF804200122A5
:103DD00008E050EA010306D030238DF804308DF856
:103DE000052002229146009B83F0080353EA0B034F
:103DF0000AD150EA010201D1620705D530228DF8BF
:103E000004204FF001097F1E3278582A04D039A2CD
:103E10000C920CAA02920BE03BA2F9E75B46009AD7
:103E2000FFF7B4FA0C9B9B5C029A521E029213702D
:103E300050EA0102F2D1029804A9081A00F1200BFD
:103E4000600702D524F4803400E001275F4502DDDD
:103E5000A7EB0B0000E0002000EB0B0100900398A3
:103E60004944401A0390E00306D453462146179A6A
:103E7000039800F0A9F90544002706E001A852467E
:103E8000C05D179990476D1C7F1C4F45F6DBE00322
:103E90000CD553462146179A039800F095F905442E
:103EA00004E030205246179990476D1C0099481E37
:103EB00000900029F5DC08E002980299524600784B
:103EC000491C0291179990476D1CBBF10001ABF1A1
:103ED000010BF1DC5BE100F065F90544761C3078FC
:103EE00000287FF40DAE19B02846BDE8F08F000021
:103EF00009280100303132333435363738396162C0
:103F00006364656600000000303132333435363783
:103F1000383941424344454600000000600700D460
:103F2000062708F1070020F00700F0E8022380468A
:103F300003F0004C5FEA0C0001D097A009E02005D7
:103F400001D596A005E0E00701D095A001E0AFF211
:103F50004C001390307823F0004365280CD006DC29
:103F6000452809D046281DD047287FD13BE0662848
:103F700018D067287AD136E00021112F01DB1120FB
:103F800000E0781CCDE9000104A90CA8FFF7EEFCC5
:103F9000DDE90D010C9A4FF0000B07F101091092B9
:103FA00000914EE04FF000400097CDE9011004A9C8
:103FB0000CA8FFF7DBFCDDE90D020C9B0F994FF01D
:103FC000000B91461093009211B9791C00EB010986
:103FD000B7EB090003D4C0F1FF3B07F10109A9EBDE
:103FE0000700019042E0012F00DA01270021112F84
:103FF00001DD112000E03846CDE9000104A90CA83C
:10400000FFF7B4FCDDE90D010C9A00914FF0000BB5
:10401000B946109221070FD4009A4A4503DA914617
:1040200001E0A9F10109B9F1010F05DD109AA9F12B
:104030000101515C3029F4D0B84202DA10F1040FCA
:1040400003DA0121CDE9011010E0002803DC8344EC
:10405000A9EB000102E0411C494500DD8946A0EBC7
:104060000B00401C01904FF000400290200705D447
:104070000198484502DB4FF0FF30019000208DF899
:104080004B0002980DF14B07B0F1004F25D00220F4
:104090000C902B200D90029800280CDA40420290E0
:1040A0002D200D9007E00A210298FFF759F93031D1
:1040B000029007F8011D0C99481E0C900029F2DCB3
:1040C00002980028EFD1791E0D980870307800F022
:1040D000200040F0450007F8020D11A8C01BC01DCC
:1040E00002901398007800B1012000EB09010198BB
:1040F00001EBE071029801440398401A401E0390BE
:10410000E00306D453462146179A039800F05CF862
:1041100005441398007818B15246179990476D1CC2
:10412000E00323D553462146179A039800F04CF834
:1041300005441BE0BBF1000F07DB0098584504DD88
:104140001098179910F80B0001E01799302052468B
:10415000904701980BF1010B401E05F101050190FC
:1041600004D12E205246179990476D1CB9F10001D9
:10417000A9F10109DEDC05E017F8010B5246179999
:1041800090476D1C0299481E02900029F4DC5346AA
:104190002146179A03989EE62D0000002B00000090
:1041A000200000002DE9F041044600251E46174678
:1041B000880404D405E039462020B0476D1C641EF5
:1041C000F9D52846BDE8F0812DE9F04104460025E7
:1041D0001E469046C80301D5302700E020278804FA
:1041E00004D505E041463846B0476D1C641EF9D53C
:1041F0002846BDE8F0814A68002A06D00A68531CA8
:104200000B6010704868401E486070470000000056
:104210001F0000001C0000001F0000001E00000026
:104220001F0000001E0000001F0000001F00000013
:104230001E0000001F0000001E0000001F00000004
:104240007461736B5F73746172745F656E7472799D
:10425000006372656174655F7461736B5F6F665F45
:1042600073746172740063736C6F636B5F696E6902
:1042700074007461736B5F686F73745F656E7472E2
:1042800079006372656174655F7461736B5F6F66FB
:104290005F686F7374007461736B5F6C69737465CE
:1042A0006E5F656E747279006372656174655F74C8
:1042B00061736B5F6F665F6C697374656E007461C8
:1042C000736B5F6374726C5F656E74727900637296
:1042D000656174655F7461736B5F6F665F63747251
:1042E0006C00696E69740000413130004E3130005D
:1042F0005031300041300000423000004D300000AD
:104300004E300000434150300000000050300000AB
:104310004131310050313100413100004D31000058
:104320004E31000043415031000000005031000088
:10433000413132004231320050313200413200000E
:10434000433200004D3200004E32000043415032F3
:1043500000000000503200005031330041330000B3
:10436000433300004D3300004E3300005033000053
:104370003356330041340000433400004D34000014
:104380004E34000050340000413500004335000039
:104390004D3500004E35000050350000433600001A
:1043A0004D3600004E360000503600004337000006
:1043B0004D3700004E3700005037000050380000E5
:1043C000413900004E39000050390000474E44008A
:1043D00058490000584F0000524553455400000012
:1043E0004E6F50696E00000008440000000000207D
:1043F0000C090000A0380000744600000C090020E1
:104400000C5301005C390000013C1AAA0101181389
:1044100001062B1181041207141101081211051B4A
:104420002D31011423052C1A0D041A15041A1D042C
:104430001A25042288021C20031AE04332010A19BB
:10444000702032020A19042032032A34202D200160
:10445000400C0CF10A1D04600A1D052032060A19E1
:10446000CC2032070A194C2032082AC420356001BA
:104470004009F23729144BEC42200A110A20291472
:104480000A1924600A1D0BA00A1D0CE0320D5A48BF
:10449000A00A110280320E5A20200A110120420F78
:1044A000592041E9200A1D108032112A7820353028
:1044B000014004F23532125A8C200A1105203213C1
:1044C0005A9C200A11062032145AAC200A110720E7
:1044D00032155A40200A1102202A16DB59200A11EF
:1044E000032032170A19D0E032180A19D4203219E1
:1044F0000A19D820321A2A44204A50A0F236321B18
:104500005A642029A0E920321C5A7C200A11042078
:10451000321D5A90200A110520321E5AA0200A117D
:104520000620321F5AB0200A11072032200A19CC67
:10453000E02A21A459400A11014032224BFC4220BA
:1045400041E92032232A0C404A8020F23832245A92
:104550002C202960E92032255A54200A11022032E9
:10456000265A6C200A11032032275A84200A11048B
:104570002032285A98200A11052032295AA8200AE8
:10458000110620322A5AB8200A110720322B5ABCB1
:10459000200A110820322C5AC8200A110920322D75
:1045A0004BF042200A110A20322E5A14400A110BF5
:1045B000202A2F1459200A110C2032305A58200A70
:1045C000110D2032312AF88044200140F234323279
:1045D0002AF4204A1020F23329102A186019200AE0
:1045E00011012029505A3C200A11022032355A5C10
:1045F000200A11032032365A74200A11042032375F
:104600005A88200A11052029F02AB4205D60014053
:104610000730C132395AA4200A110620323A5A947E
:10462000202960E920323B5A802029A0E920323C31
:104630005A682029E0E920323D5AC0C00A1109C059
:10464000323E4BE842200A110A202A3F1B59400AF9
:10465000110B2032405A30200A110C20CB6D31044E
:1046600023B1321AED041AF3041A292D1A2D04135A
:04467000E808C22074
:0400000500000149AD
:00000001FF
